:020000040800F2
:100000007005002005010008CF1C0008DD15000860
:10001000CD1C0008B10100085121000800000000BB
:100020000000000000000000000000001F1E00088B
:10003000CB01000800000000D11C0008391E000898
:100040001F0100081F0100081F0100081F01000810
:100050001F0100081F0100081F0100081F01000800
:100060001F0100081F0100081F0100081F010008F0
:100070001F0100081F0100081F0100081F010008E0
:100080001F0100081F0100081F0100081F010008D0
:100090001F0100081F0100081F0100081F010008C0
:1000A0001F0100081F0100081F0100081F010008B0
:1000B0001F0100081F0100081F0100081F010008A0
:1000C0001F0100081F0100081F0100081F01000890
:1000D0001F0100081F0100081F0100081F01000880
:1000E0001F0100081F0100081F010008DFF810D0E1
:1000F00000F042F800480047B1220008AFF300804A
:10010000700500200648804706480047FEE7FEE7E6
:10011000FEE7FEE7FEE7FEE7FEE7FEE7FEE7FEE7B7
:10012000811E0008ED000008D2B201E000F8012BAA
:10013000491EFBD270470022F6E710B513460A4667
:1001400004461946FFF7F0FF204610BD421C10F888
:10015000011B0029FBD1801A704710B5002200E076
:10016000521C835C8C5CA34201D1002BF8D1D8B225
:10017000E1B2401A10BD0000064C074D06E0E068F1
:1001800040F0010394E8070098471034AC42F6D3DE
:10019000FFF7B0FF9C280008BC28000810B5142009
:1001A00001F0BAFD0321BDE81040142001F038BE73
:1001B000FEE770B50C46054601F0AEFD20EA0401ED
:1001C0002846BDE8704001F0C5BF704770B50446D1
:1001D00000F016F90546B4F1FF3F02D0044800785C
:1001E000044400F00DF9401BA042FAD370BD00009A
:1001F000280000202DE9F84F00239C46DFF8D88125
:100200000F2708F1040909F1040A0AF1040B01227D
:1002100002FA0CF60A683240B2427CD1DFF8BCE147
:100220004C68A4EB0E0574452BD00DDC032C34D0A8
:1002300005DC34B3012C19D0022C2FD11BE0112C7A
:1002400016D0122C2AD119E0B5F5881F19D006DC7A
:10025000B5F5803F15D0B5F5801F1FD111E0B5F57C
:10026000001F0ED0B5F5041F18D10AE0CB6815E0C9
:10027000CB681B1D12E0CB6808330FE0CB680C3352
:100280000CE08B6823B1012B04D00823466105E004
:10029000042303E00823066100E00023B2F5807F19
:1002A00001D2054601E000F1040502D24FEA8C04B8
:1002B00003E0ACF108044FEA84042E6807FA04FE58
:1002C00026EA0E0603FA04F446EA04042C604C689D
:1002D00014F0805F78D0424CA56945F00105A56116
:1002E000A46904F0010400942CF0030404F1804498
:1002F00004F58034A6684FEA8C754FEA157507FA45
:1003000005FE26EA0E0EA0F18046B6F5843620D012
:10031000A0F1804600E057E0B6F586361BD0A0F18C
:100320008046B6F5883618D0A0F18046B6F58A36F4
:1003300015D0042606FA05F545EA0E05A5604C68B9
:1003400014F4803F0DD0D8F800401443C8F80040A2
:100350000CE00026EEE70126ECE70226EAE703269A
:10036000E8E7D8F800409443C8F800404C6814F41B
:10037000003F05D0D9F800401443C9F8004004E01C
:10038000D9F800409443C9F800404C6814F4801F29
:1003900005D0DAF800401443CAF8004004E0DAF867
:1003A00000409443CAF800404C6814F4001F05D084
:1003B000DBF800402243CBF8002005E0DBF80040EA
:1003C00024EA0202CBF800200CF1010CBCF1100F62
:1003D000FFF41DAFBDE8F88F0004014000001110CC
:1003E000001002408068084201D0012070470020C0
:1003F0007047002A01D0016170470904016170470C
:1004000001488068704700002800002070B504464D
:10041000002C04D094F83D00002510B106E0012026
:1004200070BD84F83C50204600F056F9242084F832
:100430003D002068016821F00101016000F0FEFA32
:10044000434A6168914203D84249884203D304E099
:100450004149884201D2012070BD4049B0FBF1F111
:10046000236859606368934201D8491C07E04FF440
:10047000967359434FF47A73B1FBF3F1491C236827
:1004800019626168914210D84900401EB0FBF1F238
:10049000521CC2F30B02042A01D2042024E0B0FB58
:1004A000F1F0401CC0F30B001EE0A268DAB301EBD0
:1004B000C10303EB0113A0F1010CBCFBF3F35B1CC4
:1004C00043F480431B051B0D37D06AB301EBC10217
:1004D00002EB0111401EB0FBF1F0401CC0F30B0019
:1004E00040F4804040F400402168C861216AE0691E
:1004F000084321680860E168206908432168886032
:10050000A169606908432168C8602068016841F0FA
:10051000010101602564202084F83D00256384F8F2
:100520003E50002070BD00E009E001EB4103A0F166
:10053000010CBCFBF3F35B1CC4E70120D4E701EB27
:100540004101401EB0FBF1F0401CC0F30B00C9E7B5
:10055000A086010080841E0000093D0040420F007B
:100560002DE9F84F04468A46904699460A9FFFF7C0
:1005700047FF064694F83D00202802D00220BDE83F
:10058000F88F1923012252492046009601F0C4F841
:1005900010B10220BDE8F88F94F83C00012808D083
:1005A000012084F83C002068016811F0010F03D09D
:1005B00006E00220BDE8F88F016841F0010101600A
:1005C0002068016821F400610160212084F83D0069
:1005D000102084F83E0000252564C4F82480A4F887
:1005E0002A903C48E062608D208533463A46514669
:1005F000204601F009F860B1206C042804D084F88A
:100600003C500320BDE8F88F84F83C500120BDE841
:10061000F88F2068416980690090208D002848D0BB
:1006200032463946204601F02EF968B1206C042884
:1006300002D00320BDE8F88F2068016841F4007102
:1006400001600120BDE8F88F606A411C6162216889
:1006500000780861608D401E6085208D401E82B24A
:1006600022852068416911F0040F0BD052B1626AF3
:10067000511C616211780161608D401E6085208D82
:10068000401E208532463946204601F019F868B1EF
:10069000206C042802D00320BDE8F88F2068016890
:1006A00041F4007101600120BDE8F88F208D002821
:1006B000B6D12068016841F400710160202084F8FF
:1006C0003D0084F83E5084F83C500020BDE8F88F8F
:1006D000020010000000FFFF10B586B0002100915D
:1006E00001910291039100680F4988421AD10F4C81
:1006F000A06940F00800A061A069694600F0080008
:100700000490C0200090122001900320039008481C
:10071000FFF770FDE06940F40010E061E06900F46B
:100720000010049006B010BD0054004000100240BC
:10073000000C0140024881680278114481607047D2
:100740002800002010B50748016841F01001016041
:10075000032000F07DF8002000F006F800F026F8F5
:10076000002010BD0020024070B504460D4D4FF42E
:100770007A712878B1FBF0F00B490968B1FBF0F011
:1007800000F018FD08B1012070BD102C07D2002226
:100790002146501E00F028F86C60002070BD01203A
:1007A00070BD000028000020240000200C4808B57F
:1007B000816941F001018161816901F001010091CC
:1007C000C16941F08051C161C06900F08050009062
:1007D0000448416821F0E06141F00071416008BDCA
:1007E000001002400000014010B4184B1B68C3F316
:1007F0000223C3F1070CBCF1040F01D94FF0040C24
:100800001C1D072C01D2002300E0DB1E012404FA8A
:100810000CFCACF1010C0CEA0101994004FA03F361
:100820005B1E1A401143002808DA00F00F0000F1A7
:10083000E020090180F8141D10BC704700F1E02091
:10084000090180F8001410BC704700000CED00E0B6
:1008500000F00700064A11684FF6FF03194041EA0D
:10086000002040F0FD7040F0806010607047000094
:100870000CED00E02DE9F04704460D46DFF8A081BD
:10088000D8F8000000F00700A8420FD2D8F8000006
:1008900020F007002843C8F80000D8F8000000F056
:1008A0000700A84202D00120BDE8F08720685D4F14
:1008B00010F0020F14D010F0040F03D0786840F449
:1008C000E0607860207810F0080F03D0786840F47A
:1008D000605078607868A16820F0F0000843786084
:1008E000207810F0010F5FD06068012806D0022840
:1008F0000BD0396811F0020F29D00AE0396811F4E1
:10090000003F06D10120BDE8F087396811F0007F73
:100910001AD0796821F0030108437860FFF770FD71
:100920000646606841F28839012813D0022824D095
:10093000786810F00C0F37D0FFF762FD801B484538
:100940002ED90320BDE8F0870120BDE8F087012003
:10095000BDE8F087786800F00C00042824D0FFF789
:100960004FFD801B484502D90320BDE8F087786819
:1009700000F00C000428F2D116E0786800F00C00BA
:10098000082811D0FFF73CFD801B484502D9032001
:10099000BDE8F087786800F00C000828F2D103E089
:1009A000786810F00C0FC7D1D8F8000000F00700ED
:1009B000A8420FD9D8F8000020F007002843C8F853
:1009C0000000D8F8000000F00700A84202D0012083
:1009D000BDE8F087207810F0040F05D07868E16852
:1009E00020F4E06008437860207810F0080F06D00B
:1009F0007868216920F4605040EAC100786000F016
:100A00002DF87968084AC1F30311515CC8400749C1
:100A100008600020FFF7A8FE0020BDE8F087000076
:100A2000002002400010024084280008240000201A
:100A300001480068704700002400002000B5FFF75F
:100A4000F7FF04494968044AC1F30221515CC840D8
:100A500000BD0000001002409428000885B015A0D9
:100A6000836842680168C068039302920191049010
:100A700014A000680090144B5968144801F00C024F
:100A8000042A11D0082A0FD101A8C1F38342805C47
:100A900011F4803F0AD05968C1F340411DF801109C
:100AA0000A4A5043B0FBF1F005B07047084905B061
:100AB0004843704702030405060708090A0B0C0D9A
:100AC0000E0F1010010200000010024000127A0008
:100AD00000093D002DE9F84F0446FA4D207810F04A
:100AE000010F68D0686800F00C00042808D068681E
:100AF00000F00C0008280DD1686810F4803F09D080
:100B0000286810F4003F56D06068002853D10120B7
:100B1000BDE8F88F6068B0F5803F15D0C8B1B0F57A
:100B2000A02F1FD0286820F480302860286820F487
:100B300080202860606858B3FFF762FC064628688A
:100B400010F4003F17D036E0286840F48030286069
:100B5000F0E7286820F480302860286820F480209E
:100B60002860E7E7286840F480202860286840F47F
:100B700080302860DEE7FFF743FC801B642802D941
:100B80000320BDE8F88F286810F4003FF3D012E08E
:100B9000FFF736FC0646286810F4003F0BD0FFF73D
:100BA0002FFC801B642802D90320BDE8F88F286839
:100BB00010F4003FF3D12078C34F10F0020F4FF034
:100BC000010B4FF0000854D0686810F00C0F14D0DF
:100BD000686800F00C00082803D1686810F4803FB2
:100BE0000BD0206978B3C7F800B0FFF709FC0646C0
:100BF000286810F0020F12D01DE0286810F0020FD4
:100C000005D02069012802D00120BDE8F88F2868AE
:100C1000616920F0F80040EAC100286029E0FFF790
:100C2000EFFB801B022802D90320BDE8F88F28685B
:100C300010F0020FF3D02868616920F0F80040EA54
:100C4000C100286015E0FFE7C7F80080FFF7D8FB78
:100C50000646286810F0020F0BD0FFF7D1FB801B6F
:100C6000022802D90320BDE8F88F286810F0020F8F
:100C7000F3D1207810F0080F30D09448A169C1B1A9
:100C8000C0F800B0FFF7BCFB0646686A10F0020F20
:100C90000BD1FFF7B5FB801B022802D90320BDE86A
:100CA000F88F686A10F0020FF3D0012001F022F8EB
:100CB00014E0C0F80080FFF7A3FB0646686A10F056
:100CC000020F0BD0FFF79CFB801B022802D90320E8
:100CD000BDE8F88F686A10F0020FF3D1207810F0A9
:100CE000040F6FD00026E86910F0805F08D1E86932
:100CF00040F08050E861E86900F0805000900126E3
:100D0000DFF8CCA1DAF8000010F4807F1BD1DAF80C
:100D1000000040F48070CAF80000FFF771FB8146C4
:100D2000DAF8000010F4807F0DD1FFF769FBA0EB2B
:100D30000900642802D90320BDE8F88FDAF8000022
:100D400010F4807FF1D0E068012816D0D0B10528DA
:100D500021D0286A20F001002862286A20F00400CF
:100D60002862E06841F2883A68B3FFF749FB8146A0
:100D7000286A10F0020F17D03AE0286A40F001000C
:100D80002862EEE7286A20F001002862286A20F035
:100D900004002862E5E7286A40F004002862286A17
:100DA00040F001002862DCE7FFF72AFBA0EB090016
:100DB000504502D90320BDE8F88F286A10F0020FD1
:100DC000F2D015E01AE0FFE7FFF71AFB8146286A28
:100DD00010F0020F0CD0FFF713FBA0EB09005045F9
:100DE00002D90320BDE8F88F286A10F0020FF2D173
:100DF000012E03D1E86920F08050E861E069E8B392
:100E0000696801F00C01082958D0022810D0C7F8F1
:100E10006080FFF7F5FA0446286810F0007F4AD09A
:100E2000FFF7EEFA001B022841D90320BDE8F88F36
:100E3000C7F86080FFF7E4FA0646286810F0007FE4
:100E40000BD0FFF7DDFA801B022802D90320BDE892
:100E5000F88F286810F0007FF3D1206AB0F5803F4A
:100E600005D16868A16820F4003008436860616AB1
:100E7000206A0843696821F4741100E01BE008430C
:100E80006860C7F860B0FFF7BBFA0446286810F046
:100E9000007F10D1FFF7B4FA001B022802D903200B
:100EA000BDE8F88F286810F0007FF3D003E02868D1
:100EB00010F0007FB4D10020BDE8F88F0120BDE81C
:100EC000F88F0000001002400000424280044242BD
:100ED0000070004070B50446002C05D00025A562C6
:100EE00094F8510010B104E0012070BD204600F0DC
:100EF00033F8022084F851002068016821F0400195
:100F00000160A168606822690843E16811430843F1
:100F100061690843218B01F400710843E1690843CA
:100F2000216A0843A16A084321680860A069042176
:100F300001EA1040616A0843216848602168E06A5C
:100F400008612068C16921F40061C1616565012003
:100F500084F85100002070BD30B585B000240094A5
:100F600001940294039400681449884223D11448E0
:100F7000816941F480518161816901F4805104915A
:100F8000816941F00401816180690E4D00F0040027
:100F90000490A02000900220019003200390694655
:100FA0002846FFF727F94020CDE900046946284686
:100FB0000294FFF71FF905B030BD0000003001407A
:100FC00000100240000801402DE9F84F0446DDF80A
:100FD00028800D4616469B4601274FF0000994F8DD
:100FE000500001280ED0012084F85000FFF708FAC5
:100FF000824694F85100616801280ED0B1F5827FD5
:1010000007D102E00220BDE8F88FA16809B90428E1
:1010100003D04FF0020900F0C3B845B13EB1BBF1B7
:10102000000F04D094F85100012803D005E04FF0E0
:101030000109B5E0052084F8510000206065A66331
:10104000A4F83EB0A4F83CB02563A4F836B0A4F8E8
:1010500034B0206460642068016811F0400F03D14F
:10106000016841F040010160E068B0F5006F05D013
:101070006068C8B3E08E01283ED06EE0606810B1B1
:10108000E08E012831D121682888C860AD1CE08E2F
:10109000401EE08629E06FB1E08E58B1206881687B
:1010A00011F0020F06D02988C160AD1CE08E401EF1
:1010B000E0860027E08F58B12068816811F0010FA9
:1010C00006D0C0683080B61CE08F401EE087012744
:1010D000B8F1FF3F09D0FFF793F9A0EB0A004045B4
:1010E00003D34FF003095BE006E0E08E0028D2D185
:1010F000E08F0028CFD136E02168287808736D1C76
:10110000E08E401EE08628E06FB1E08E58B1206886
:10111000816811F0020F06D015F8011B0173E08EF3
:10112000401EE0860027E08F58B12068816811F0EA
:10113000010F06D0C06806F8010BE08F401EE08763
:101140000127B8F1FF3F08D0FFF75AF9A0EB0A00DA
:10115000404502D34FF0030922E0E08E0028D3D1AE
:10116000E08F0028D0D14346012202212046CDF84D
:1011700000A000F0FFFD10B14FF0030910E052464F
:101180004146204600F0E4FD20B14FF00109202047
:10119000606505E0A06818B92068C16880680090A3
:1011A000012084F85100002084F850004846BDE832
:1011B000F88F0000401EB0F1807F01D301207047FE
:1011C0004FF0E0214861044AF0201070002088614F
:1011D000072008610020704723ED00E090F83C20D4
:1011E000012A2FD0012280F83C20CA680023D1F8C0
:1011F00008C022F4407242EA0C02D1F804C022F482
:10120000806242EA0C02D1F800C022F4006242EA95
:101210000C02D1F810C022F4805242EA0C02D1F83C
:1012200014C022F4005242EA0C02896922F480427E
:101230000A4322F4004211430268516480F83C30B2
:10124000002070470220704710B490F83C20012A1B
:101250002AD0012380F83C30022280F83D20026829
:10126000D2F804C02CF0700CC2F804C00268D2F8A6
:1012700004C00C684CEA040CC2F804C00268D2F83E
:1012800008C02CF0800CC2F808C00268D2F808C070
:1012900049684CEA0101916080F83D30002180F8F6
:1012A0003C1010BC0020704710BC0220704710B5E5
:1012B0000446002C03D094F83D0010B107E0012053
:1012C00010BD002084F83C00204600F00DF80220FC
:1012D00084F83D00211D206800F0F6FD012084F80F
:1012E0003D00002010BD000008B50C4A01680C4804
:1012F000914207D1816941F400618161806900F404
:10130000006009E0B1F1804F07D1C16941F00101EE
:10131000C161C06900F00100009008BD002C0140CF
:101320000010024070B5044694F83C00012818D023
:10133000012584F83C50022084F83D002068826832
:1013400022F0770222F47F428260086850283AD067
:101350000EDC20285FD006DC002852D0102863D194
:1013600054E0022070BD30285AD040285CD13EE0C5
:10137000602832D070280CD0B0F5805F03D0B0F573
:10138000005F51D113E02068816821F0070181607E
:101390004AE0CB684A688968206800F0DEFD206872
:1013A000816821F0770141F0770181603CE0CB68F2
:1013B0004A688968206800F0D0FD2068816841F49F
:1013C0008041816030E0CA684968206800F09BFE77
:1013D0005021206800F0CCFD26E0CA6849682068EA
:1013E00000F0A4FE6021206800F0C2FD1CE0CA6885
:1013F0004968206800F087FE4021206800F0B8FDB1
:1014000012E00021206800F0B3FD0DE010212068FB
:1014100000F0AEFD08E02021206800F0A9FD03E007
:101420003021206800F0A4FD84F83D50002084F8AD
:101430003C0070BD10B586B0002100910191029171
:101440000391124C0368124902221248A34209D1A7
:101450008B6943F004038B61896901F004010491F5
:1014600081150BE0B3F1804F0ED18B6943F004037B
:101470008B61896901F0040104910121CDE9001219
:1014800069460392FEF7B6FE06B010BD002C01407F
:10149000001002400008014070B504460D4694F863
:1014A0003C0001280DD0012684F83C60022084F81D
:1014B0003D0042B1042A1AD0082A2DD00C2A53D15B
:1014C0003EE0022070BD2946206800F059FD2068EA
:1014D000816941F0080181612068816921F004017E
:1014E0008161206881692A69114381613CE0294654
:1014F000206800F079FD2068816941F40061816114
:101500002068816921F480618161206881692A698C
:1015100041EA0221816127E02946206800F098FD18
:101520002068C16941F00801C1612068C16921F0EA
:101530000401C1612068C1692A691143C16113E0D6
:101540002946206800F0B8FD2068C16941F40061B7
:10155000C1612068C16921F48061C1612068C169ED
:101560002A6941EA0221C16184F83D60002084F8C3
:101570003C0070BD10B50446002C03D094F83D002B
:1015800010B107E0012010BD002084F83C00204687
:1015900000F00CF8022084F83D00211D206800F0C6
:1015A00093FC012084F83D00002010BD704710B569
:1015B00004460122206800F0C3FC2068A0F18041AD
:1015C000B1F5963103D1416C41F40041416420688A
:1015D000016841F001010160002010BDFEE70168D3
:1015E0004A6912F4806F0DD06FF480624A61042161
:1015F000016400210163202280F83D2080F83C1026
:101600000120704700207047F8B504460D46174684
:101610001E46E06A042808D0012806D010F5803F55
:1016200003D0206B122806D00AE02068016841F43C
:101630008071016004E02068016841F480710160FC
:101640003B4600224FF001112046009600F064F85E
:1016500008B10320F8BD2069B0F5804F12D005F421
:101660004070F02141EAD0102168086133463A46C3
:101670001149204600F0AAF858B1206C042806D081
:101680000320F8BD216805F0FE00086104E0012098
:10169000F8BD2168E8B2086133463A46074920465A
:1016A00000F094F830B1206C042801D00320F8BD7C
:1016B0000120F8BD0020F8BD080001000200010073
:1016C00070B504460D4616462068406910F0040FB8
:1016D00020D12046FFF783FF08B1012070BDB5F18E
:1016E000FF3F12D025B1FEF78BFE801BA8420CD91C
:1016F000206C40F02000206400202063202184F82A
:101700003D1084F83C00032070BD2068406910F053
:10171000040FDED0002070BD2DE9F0470446DDF84F
:1017200020900D4617461E46C5F307482068B8F1BD
:10173000010F1ED0806925EA00000004000C22D0B1
:101740000020B8422FD1B6F1FF3F1ED02EB1FEF7D8
:1017500057FEA0EB0900B04217D9002020632021DA
:1017600084F83D1084F83E0084F83C000320BDE876
:10177000F087406925EA00000004000C01D0002039
:10178000DFE70120DDE70120DBE7B8F1010F0DD035
:101790002068806925EA00000004000C13D04FF097
:1017A000000CBC45CFD00020BDE8F0872068406920
:1017B00025EA00000004000C02D04FF0000CF0E716
:1017C0004FF0010CEDE74FF0010CEAE72DE9F0478F
:1017D00004460D4616461F46C5F307482068B8F173
:1017E000010F22D0806925EA00000004000C3FD0E0
:1017F0004FF000094FF0200A2068406910F4806F14
:101800001AD02068016841F40071016021686FF40A
:101810008060486104202064C4F8309084F83DA0C2
:1018200084F83C900120BDE8F087406925EA00007B
:101830000004000C1CD0DBE7B6F1FF3F0ED026B150
:10184000FEF7DEFDC01BB04208D9C4F8309084F822
:101850003DA084F83C900320BDE8F087B8F1010F6B
:1018600009D02068806925EA00000004000CC3D17B
:101870000020BDE8F0872068406925EA00000004E8
:10188000000CB9D1F4E770B504460D461646206841
:10189000406910F0800F20D12046FFF7A0FE08B16C
:1018A000012070BDB5F1FF3F12D025B1FEF7A8FDB4
:1018B000801BA8420CD9206C40F02000206400203E
:1018C0002063202184F83D1084F83C00032070BD83
:1018D0002068406910F0800FDED0002070BD7CB51C
:1018E0000446002529460D2000F034FC932020708A
:1018F0002020607001A823460090022219460C2087
:1019000000F056F8010009D1225C401C5540C0B2DD
:101910000428F9D3205CA84200D0022108467CBDEF
:1019200010B5012210211348FEF763FD0122114674
:101930001148FEF75EFD00F037F88D212A2000F0F7
:1019400009FC3E212B2000F005FC1E212D2000F07B
:1019500001FC00212C2000F0FDFB4021152000F0AF
:10196000F9FB3D21112000F0F5FBBDE81040FEF72A
:1019700015BC000000080140000C01407CB50C467D
:10198000054607210D2000F0E5FB257001A8234640
:101990000090012219460C2000F00AF810B90199B4
:1019A000102900D002207CBD0F21012000F0D2BB05
:1019B0002DE9FF5F00270225DDF838A016468B468B
:1019C0008146B8460C2805D0B9F10E0F05D1122773
:1019D000102001E077273020804647F08001022068
:1019E00000F0B8FB80210420FEF7E3FB80210A20F1
:1019F00000F016FA0021012000F0ACFB002405E005
:101A00001BF80410092000F0A5FB641CB442F7D3B6
:101A10004946012000F09EFBB9F10C0F03D1802153
:101A20000D2000F0FDF94FF4FA66042000F074F97F
:101A30000446761E04D0E00702D114EA080FF4D061
:101A400080210D20FEF7B5FB36B1062000F064F9C9
:101A500010F01B0F04D0022504B02846BDE8F09F0B
:101A600000253C40E00700D00125B9F10C0FF3D16F
:101A70000A2000F051F904460C2000F04DF910F056
:101A800007004FEAC40101D008390144CAF8001028
:101A900024B1102C04D91024002603E00124FBE714
:101AA000002605E0092000F037F903998855761CD7
:101AB000A642F7D3D0E700002DE9F04385B000241B
:101AC00028480094019402940394816941F0200114
:101AD0008161816901F020010491816941F0040173
:101AE0008161816901F004010491816941F008017B
:101AF00081618069DFF8708000F0080004900022A6
:101B000010214046FEF775FCDFF860904FF47347F4
:101B1000002239464846FEF76CFC0225CDE9005408
:101B2000694640460294FEF765FB10200126CDE988
:101B3000000669464046CDE90245FEF75BFB40F6EC
:101B400003408DE8510069464846FEF753FBCDE956
:101B5000007669464846CDE90245FEF74BFB05B0E5
:101B6000BDE8F0830010024000080140000C014075
:101B70000C480B494FF4007201604FF482714160D0
:101B800000218160C1600161C0E905120822C0E93D
:101B90000721416281620A21C162FFF79BB90000FF
:101BA000003001408800002010B594B000240E944D
:101BB0000F941094119412941C2168461394FEF70C
:101BC000BAFA1C2107A8FEF7B6FA20481E490160A0
:101BD0004FF4E171C0E901144FF47A71C0E90314C4
:101BE00044618461FFF763FB4FF480500E900EA9AF
:101BF0001648FFF797FB1548FFF7BCFC129412A993
:101C000012481394FFF720FB6020CDE900040294F2
:101C1000039404940594002269460C480694FFF747
:101C20003BFC0794089409944FF400500A94CDE9C2
:101C30000B4007A905480D94FFF7D0FA0348FFF7BA
:101C4000F9FB14B010BD0000002C0140E0000020A2
:101C500010B58EB000240794089409940A940B944C
:101C60001C2168460C94FEF766FA17484FF0804135
:101C700001604FF4E171C0E901144FF47A71C0E9D9
:101C800003148461FFF713FB4FF48050079007A9FA
:101C90000D48FFF747FB0C48FFF76CFC0B940BA9B2
:101CA00009480C94FFF7D0FA6020CDE900040294B3
:101CB0000022694604480494FFF7EEFB0248FFF750
:101CC000B9FB0EB010BD000020010020FEE77047F8
:101CD0007047000001B582B064200090012301AA82
:101CE00002A90348FFF770F99DF804000EBD00003B
:101CF0008800002081B007494FF4FA520968B1FB0F
:101D0000F2F14843009000BF0098411E0091FAD2C2
:101D100001B070472400002070B50C4D044600222D
:101D200010212846FEF765FB7E2000EA440040F0C3
:101D30008000FFF7CFFF0020FFF7CCFF0446012211
:101D400010212846FEF755FB204670BD00080140D3
:101D500038B504460B46009200228021204600F050
:101D600009F828B1606D40F020006065032038BD9F
:101D7000002038BD2DE9F0410446069E88461746EE
:101D80001D462068806838EA000015D00020B8425F
:101D900040D0B5F1FF3F35D025B1FEF731FB801BB8
:101DA000A8422FD32068416821F0E00141606068BB
:101DB000B0F5827F02D00DE00120E8E7A068B0F521
:101DC000004F02D0B0F5806F04D12068016821F087
:101DD00040010160A06AB0F5005F0AD12068016887
:101DE0004DF6FF72114001602068016841F4005116
:101DF0000160012084F85100002084F85000032085
:101E0000BDE8F0812068806838EA000005D0002035
:101E1000B842BED10020BDE8F0810120F8E770474C
:101E200070B50C460546FFF777FF40EA04012846E7
:101E3000BDE8704000F08EB9FEF77CBC10B590B0E4
:101E400028216846FEF777F914210AA8FEF773F9EE
:101E50000220009001200490102000240590079497
:101E60006846FEF737FE0F20CDE90A040C940D9466
:101E700000210AA80E94FEF7FDFC10B010BD000072
:101E80000D48016841F00101016041680B4A1140B1
:101E9000416001680A4A11400160016821F4802113
:101EA0000160416821F4FE0141604FF41F0181602F
:101EB0000449C00308607047001002400000FFF8AA
:101EC000FFFFF6FE08ED00E030B40268194BDFF8C2
:101ED00068C01A4C984206D0B0F1804F03D06045DC
:101EE00001D0A04203D122F070024D682A439842EB
:101EF00006D0B0F1804F03D0604501D0A04205D19B
:101F000022F44072D1F80CC04CEA020222F08002A6
:101F1000D1F814C04CEA020202608A68C2620A6800
:101F20008262984201D1096901630121416130BC9B
:101F300070470000002C01400004004000080040F1
:101F400001238B40D0F820C02CEA03030362036A0C
:101F500002FA01F1194301627047D0F808C02CF46D
:101F60007F4C42EA0322114341EA0C018160704731
:101F7000826822F07002114341F0070181607047CE
:101F800010B4026A22F001020262036A4268D0F8C9
:101F900018C02CF0700C2CF0030C0C6844EA0C0CEC
:101FA00023F002038C6823430E4CA04206D123F099
:101FB0000803CC6844EA030323F0040309D122F4A4
:101FC000807222F400724C6944EA02028C6944EA8D
:101FD00002024260C0F818C049684163036210BC45
:101FE00070470000002C014010B4026A22F0100279
:101FF0000262036A4268D0F818C02CF4E04C2CF45A
:10200000407C0C684CEA042C23F020038C6843EAE3
:1020100004130E4CA04206D123F08003CC6843EA9F
:10202000041323F0400309D122F4806222F40062F9
:102030004C6942EA84028C6942EA84024260C0F838
:1020400018C049688163036210BC7047002C0140CE
:1020500010B4026A22F480720262036A4268D0F805
:102060001CC02CF0700C2CF0030C0C6844EA0C0C17
:1020700023F400738C6843EA04230E4CA04206D17B
:1020800023F40063CC6843EA042323F4806309D17A
:1020900022F4805222F400524C6942EA04128C6904
:1020A00042EA04124260C0F81CC04968C16303627E
:1020B00010BC7047002C014010B4026A22F4805218
:1020C0000262036A4268D0F81CC02CF4E04C2CF485
:1020D000407C0C684CEA042C23F400538C6843EADF
:1020E0000433A0F18044B4F5963404D122F4804244
:1020F0004C6942EA84124260C0F81CC0496801641D
:10210000036210BC7047036AD0F820C02CF0010CA9
:10211000C0F820C0D0F818C02CF0F00C4CEA021225
:1021200023F00A031943826101627047036A23F0B6
:1021300010030362D0F818C0036A2CF4704C4CEA08
:10214000023223F0A00343EA011182610162704769
:10215000FEE7000070B50B4D0E460446002210212C
:102160002846FEF746F97E2000EA4400FFF7B2FD5C
:102170003046FFF7AFFD2846BDE870400122102130
:10218000FEF737B90008014002E008C8121F08C175
:10219000002AFAD170477047002001E001C1121FE8
:1021A000002AFBD17047012000F038B8012805D083
:1021B0004031C8B240F0800000F030B88031C8B281
:1021C000FAE710B5332000F029F8322000F026F8A5
:1021D0003220FDF7FBFF282000F020F83220FDF729
:1021E000F5FF012000F01AF83220FDF7EFFF06207E
:1021F00000F014F83220FDF7E9FF0C2000F00EF893
:102200003220FDF7E3FF022000F008F83220FDF74E
:10221000DDFFBDE810408020AFF300801CB500F06A
:10222000F00141F00C028DF8042041F0080100019A
:102230008DF8051040F00C018DF8061040F00800F4
:102240008DF8070064200090042301AA4E21024863
:10225000FEF786F91CBD0000340000201CB500F01C
:10226000F00141F00D028DF8042041F00901000158
:102270008DF8051040F00D018DF8061040F00900B2
:102280008DF8070064200090042301AA4E21024823
:10229000FEF766F91CBD00003400002010B50446AE
:1022A00002E0641CFFF7DAFF20780028F9D110BDA6
:1022B000FEF748FAFFF7C2FDFFF7FEFBB848B74943
:1022C00000250160B749C0E901154FF48041C0E91C
:1022D000035145618561C5610562FEF797F8FFF717
:1022E00047FCFFF761FCFFF7B3FCFFF719FBFFF7B3
:1022F00068FFAB480021AC30FFF759F9A84800212E
:10230000EC30FFF754F9A84CDFF8A0A2A4F1150BAC
:102310004FF019084FF02D09A4F11B060221A44823
:10232000FEF760F858B99E4FEC373968C1F8348031
:102330004FF47A60FDF74AFF3968C1F834909D493F
:102340002620FFF71BFB00286CD19A48FFF7C7FA3D
:10235000002867D102202070692060709548002213
:1023600001783031A17041783031E17081783031BD
:102370002171C1783031617100794FF48071303052
:10238000A0717820E0715046FEF733F80021864BAB
:102390000A460846103B275C13F800C0674500D08A
:1023A000491C401C0828F6D37F4B0020083B275CC3
:1023B00013F800C0674500D0521C401C0828F6D313
:1023C000E9B3E2B30122510257465046FEF711F835
:1023D00005210220FFF7EAFE77A0FFF75FFF4FF429
:1023E0007A70FDF7F3FE00224FF400713846FEF7D5
:1023F00000F800BFFFF7D7FE9620FDF7E7FE0021AB
:102400000120FFF7D3FE6EA0FFF748FF0B2101204C
:10241000FFF7CCFE64481538FFF740FF4FF47A70A1
:10242000FDF7D4FE00F0D8F8307001287ED05E4869
:102430001538FDF78BFE042807DA327800E008E053
:102440000BEB00010BF800204D7031782A291FD0CA
:1024500037E0012211025046FDF7CBFF0321022095
:10246000FFF7A4FE59A0FFF719FF524F803F3968CC
:10247000C1F834804FF47A60FDF7A8FE00224FF4D3
:1024800080715046FDF7B5FF3968C1F83490B1E767
:10249000002851DD584400F8015CFFF784FE9620C7
:1024A000FDF794FE00210120FFF780FE44A0FFF716
:1024B000F5FE0B210120FFF779FE3B481538FFF7A9
:1024C000EDFE3078232837D137491A39481DFDF7FA
:1024D00044FE4FF0010250B3570239465046FDF713
:1024E00088FF05210220FFF761FE33A0FFF7D6FE2B
:1024F0004FF4FA60FDF76AFE002239465046FDF7B8
:1025000078FF00BFC6F80650B572FFF74CFE962064
:10251000FDF75CFE00210120FFF748FE28A0FFF731
:10252000BDFE0B210120FFF741FE01E004E016E0B3
:102530001D481538FFF7B2FE00210120FFF736FED7
:102540001FA0FFF7ABFE0B210120FFF72FFE16485F
:102550001538FFF7A3FE9620FDF738FEDEE64FF4B0
:1025600080715046FDF745FF124F803F3968C1F832
:10257000348003210220FFF719FE14A0FFF78EFE1E
:102580004FF47A60FDF722FE00224FF4807150462E
:10259000FDF72FFF3968C1F83490B3E700540040CD
:1025A00034000020A08601001B000020000C014028
:1025B00000080140600100206661696C65640000EC
:1025C00050617373776F72643A20000073756363B0
:1025D00065737366756C00002DE9F05FA84C4FF4CD
:1025E0000047002239462046FDF703FF4FF4804A9A
:1025F000012251462046FDF7FCFE4FF4005801220F
:1026000041462046FDF7F5FE4FF4805B0122594616
:102610002046FDF7EEFEE61431462046FDF7E2FEC9
:1026200000287DD0251529462046FDF7DBFE002831
:1026300077D002212046FDF7D5FE002872D0012177
:102640002046FDF7CFFE00286DD00122B94639465D
:102650002046FDF7CEFE002251462046FDF7C9FE7A
:102660000122474641462046FDF7C3FE0122D846D7
:1026700059462046FDF7BDFE31462046FDF7B2FE25
:1026800000287AD029462046FDF7ACFE002875D0F8
:1026900002212046FDF7A6FE002870D00121204629
:1026A000FDF7A0FE00286BD00122CB46494620460C
:1026B000FDF79FFE012251462046FDF79AFE0022BB
:1026C000B94639462046FDF794FE01224746414669
:1026D0002046FDF78EFE31462046FDF783FE00289A
:1026E0006FD029462046FDF77DFE00286AD00221E2
:1026F0002046FDF777FE002875D001212046FDF722
:1027000071FE002870D0012259462046FDF771FE67
:10271000012251462046FDF76CFE0122494603E0A6
:102720002FE036E03DE044E02046FDF762FE002267
:1027300039462046FDF75DFE31462046FDF752FE44
:10274000002872D029462046FDF74CFE00286DD0A7
:1027500002212046FDF746FE002868D001212046D0
:10276000FDF740FE002806D101212046FDF73AFE84
:102770000028F9D03120BDE8F09F24E02BE034E0C0
:102780003BE031462046FDF72DFE0028F9D04420DD
:10279000F1E729462046FDF725FE0028F9D0232041
:1027A000E9E702212046FDF71DFE0028F9D0302080
:1027B000E1E701212046FDF715FE0028F9D02A2087
:1027C000D9E722E029E031462046FDF70BFE00283C
:1027D000F9D04320CFE729462046FDF703FE002825
:1027E000F9D03920C7E723E02AE002212046FDF78F
:1027F000F9FD0028F9D03820BDE701212046FDF77A
:10280000F1FD0028F9D03720B5E731462046FDF725
:10281000E9FD0028F9D04220ADE729462046FDF722
:10282000E1FD0028F9D03620A5E711E018E01FE00F
:1028300002212046FDF7D6FD0028F9D035209AE781
:1028400001212046FDF7CEFD0028F9D0342092E783
:1028500031462046FDF7C6FD0028F9D041208AE721
:1028600029462046FDF7BEFD0028F9D0332082E737
:1028700002212046FDF7B6FD0028F9D032207AE784
:10288000000C0140000000000000000001020304F1
:10289000060708090000000001020304BC28000824
:1028A000000000203400000088210008F028000803
:1028B000340000203C05000098210008003132332C
:1028C000340000000000000269834980C6BC780221
:1028D00069636D8B40757800000000000000000007
:1028E00000A24A04010000001000000000000000E7
:04000005080000ED02
:00000001FF
