:020000040800F2
:100000006805002005010008171B00089915000865
:10001000151B000885010008991F0008000000005A
:10002000000000000000000000000000671C000845
:100030008701000800000000191B0008811C00084F
:100040001F0100081F0100081F0100081F01000810
:100050001F0100081F0100081F0100081F01000800
:100060001F0100081F0100081F0100081F010008F0
:100070001F0100081F0100081F0100081F010008E0
:100080001F0100081F0100081F0100081F010008D0
:100090001F0100081F0100081F0100081F010008C0
:1000A0001F0100081F0100081F0100081F010008B0
:1000B0001F0100081F0100081F0100081F010008A0
:1000C0001F0100081F0100081F0100081F01000890
:1000D0001F0100081F0100081F0100081F01000880
:1000E0001F0100081F0100081F010008DFF810D0E1
:1000F00000F02CF8004800470D210008AFF3008005
:10010000680500200648804706480047FEE7FEE7EE
:10011000FEE7FEE7FEE7FEE7FEE7FEE7FEE7FEE7B7
:10012000C91C0008ED000008D2B201E000F8012B64
:10013000491EFBD270470022F6E710B513460A4667
:1001400004461946FFF7F0FF204610BD064C074D48
:1001500006E0E06840F0010394E807009847103497
:10016000AC42F6D3FFF7C6FF20280008402800085D
:1001700010B5142001F0F4FC0321BDE81040142058
:1001800001F072BDFEE7704770B5044600F016F945
:100190000546B4F1FF3F02D004480078044400F063
:1001A0000DF9401BA042FAD370BD000018000020DA
:1001B0002DE9F84F00239C46DFF8D8810F2708F17E
:1001C000040909F1040A0AF1040B012202FA0CF6EF
:1001D0000A683240B2427CD1DFF8BCE14C68A4EB43
:1001E0000E0574452BD00DDC032C34D005DC34B364
:1001F000012C19D0022C2FD11BE0112C16D0122C5F
:100200002AD119E0B5F5881F19D006DCB5F5803F75
:1002100015D0B5F5801F1FD111E0B5F5001F0ED028
:10022000B5F5041F18D10AE0CB6815E0CB681B1D9B
:1002300012E0CB6808330FE0CB680C330CE08B681E
:1002400023B1012B04D00823466105E0042303E019
:100250000823066100E00023B2F5807F01D2054645
:1002600001E000F1040502D24FEA8C0403E0ACF196
:1002700008044FEA84042E6807FA04FE26EA0E06F4
:1002800003FA04F446EA04042C604C6814F0805F1E
:1002900078D0424CA56945F00105A561A46904F038
:1002A000010400942CF0030404F1804404F580342C
:1002B000A6684FEA8C754FEA157507FA05FE26EA1F
:1002C0000E0EA0F18046B6F5843620D0A0F180460F
:1002D00000E057E0B6F586361BD0A0F18046B6F5B3
:1002E000883618D0A0F18046B6F58A3615D0042697
:1002F00006FA05F545EA0E05A5604C6814F4803F42
:100300000DD0D8F800401443C8F800400CE0002697
:10031000EEE70126ECE70226EAE70326E8E7D8F84D
:1003200000409443C8F800404C6814F4003F05D0E6
:10033000D9F800401443C9F8004004E0D9F800405F
:100340009443C9F800404C6814F4801F05D0DAF8D3
:1003500000401443CAF8004004E0DAF80040944337
:10036000CAF800404C6814F4001F05D0DBF80040C8
:100370002243CBF8002005E0DBF8004024EA02022B
:10038000CBF800200CF1010CBCF1100FFFF41DAFF5
:10039000BDE8F88F00040140000011100010024079
:1003A0008068084201D00120704700207047002A71
:1003B00001D00161704709040161704701488068FC
:1003C000704700001800002070B50446002C04D0CF
:1003D00094F83D00002510B106E0012070BD84F8BE
:1003E0003C50204600F056F9242084F83D00206857
:1003F000016821F00101016000F0FEFA434A6168E2
:10040000914203D84249884203D304E041498842DB
:1004100001D2012070BD4049B0FBF1F12368596061
:100420006368934201D8491C07E04FF4967359431F
:100430004FF47A73B1FBF3F1491C236819626168C8
:10044000914210D84900401EB0FBF1F2521CC2F399
:100450000B02042A01D2042024E0B0FBF1F0401C7E
:10046000C0F30B001EE0A268DAB301EBC10303EB9B
:100470000113A0F1010CBCFBF3F35B1C43F48043BC
:100480001B051B0D37D06AB301EBC10202EB011152
:10049000401EB0FBF1F0401CC0F30B0040F4804064
:1004A00040F400402168C861216AE069084321687E
:1004B0000860E1682069084321688860A169606973
:1004C00008432168C8602068016841F001010160AB
:1004D0002564202084F83D00256384F83E500020E8
:1004E00070BD00E009E001EB4103A0F1010CBCFB91
:1004F000F3F35B1CC4E70120D4E701EB4101401E8C
:10050000B0FBF1F0401CC0F30B00C9E7A08601006E
:1005100080841E0000093D0040420F002DE9F84F85
:1005200004468A46904699460A9FFFF747FF0646CB
:1005300094F83D00202802D00220BDE8F88F19234E
:10054000012252492046009601F0C4F810B1022061
:10055000BDE8F88F94F83C00012808D0012084F809
:100560003C002068016811F0010F03D006E0022072
:10057000BDE8F88F016841F0010101602068016861
:1005800021F400610160212084F83D00102084F8EE
:100590003E0000252564C4F82480A4F82A903C4835
:1005A000E062608D208533463A465146204601F090
:1005B00009F860B1206C042804D084F83C50032072
:1005C000BDE8F88F84F83C500120BDE8F88F206822
:1005D000416980690090208D002848D03246394614
:1005E000204601F02EF968B1206C042802D00320C7
:1005F000BDE8F88F2068016841F4007101600120B6
:10060000BDE8F88F606A411C61622168007808616A
:10061000608D401E6085208D401E82B2228520683C
:10062000416911F0040F0BD052B1626A511C616232
:1006300011780161608D401E6085208D401E2085EF
:1006400032463946204601F019F868B1206C04287A
:1006500002D00320BDE8F88F2068016841F40071E2
:1006600001600120BDE8F88F208D0028B6D12068F8
:10067000016841F400710160202084F83D0084F895
:100680003E5084F83C500020BDE8F88F0200100076
:100690000000FFFF10B586B000210091019102918A
:1006A000039100680F4988421AD10F4CA06940F0AD
:1006B0000800A061A069694600F008000490C0200D
:1006C000009012200190032003900848FFF770FD6E
:1006D000E06940F40010E061E06900F4001004906B
:1006E00006B010BD0054004000100240000C014054
:1006F0000248816802781144816070471800002028
:1007000010B50748016841F010010160032000F0B6
:100710007DF8002000F006F800F026F8002010BD5B
:100720000020024070B504460D4D4FF47A712878D0
:10073000B1FBF0F00B490968B1FBF0F000F018FDD7
:1007400008B1012070BD102C07D200222146501E96
:1007500000F028F86C60002070BD012070BD000022
:1007600018000020140000200C4808B5816941F0F1
:1007700001018161816901F001010091C16941F0CC
:100780008051C161C06900F0805000900448416808
:1007900021F0E06141F00071416008BD00100240AD
:1007A0000000014010B4184B1B68C3F30223C3F1CF
:1007B000070CBCF1040F01D94FF0040C1C1D072CD1
:1007C00001D2002300E0DB1E012404FA0CFCACF192
:1007D000010C0CEA0101994004FA03F35B1E1A4074
:1007E0001143002808DA00F00F0000F1E0200901B1
:1007F00080F8141D10BC704700F1E020090180F85A
:10080000001410BC704700000CED00E000F0070081
:10081000064A11684FF6FF03194041EA002040F0F4
:10082000FD7040F080601060704700000CED00E04B
:100830002DE9F04704460D46DFF8A081D8F8000006
:1008400000F00700A8420FD2D8F8000020F00700FF
:100850002843C8F80000D8F8000000F00700A842BC
:1008600002D00120BDE8F08720685D4F10F0020F34
:1008700014D010F0040F03D0786840F4E060786082
:10088000207810F0080F03D0786840F4605078604A
:100890007868A16820F0F00008437860207810F0B4
:1008A000010F5FD06068012806D002280BD039689C
:1008B00011F0020F29D00AE0396811F4003F06D187
:1008C0000120BDE8F087396811F0007F1AD07968FF
:1008D00021F0030108437860FFF770FD0646606869
:1008E00041F28839012813D0022824D0786810F00A
:1008F0000C0F37D0FFF762FD801B48452ED903202F
:10090000BDE8F0870120BDE8F0870120BDE8F08751
:10091000786800F00C00042824D0FFF74FFD801BFE
:10092000484502D90320BDE8F087786800F00C0044
:100930000428F2D116E0786800F00C00082811D0E5
:10094000FFF73CFD801B484502D90320BDE8F08736
:10095000786800F00C000828F2D103E0786810F005
:100960000C0FC7D1D8F8000000F00700A8420FD93B
:10097000D8F8000020F007002843C8F80000D8F895
:10098000000000F00700A84202D00120BDE8F08777
:10099000207810F0040F05D07868E16820F4E0605A
:1009A00008437860207810F0080F06D07868216935
:1009B00020F4605040EAC100786000F02DF87968BA
:1009C000084AC1F30311515CC84007490860002080
:1009D000FFF7A8FE0020BDE8F087000000200240DD
:1009E0000010024008280008140000200148006898
:1009F000704700001400002000B5FFF7F7FF04491E
:100A00004968044AC1F30221515CC84000BD00009E
:100A1000001002401828000885B015A083684268BD
:100A20000168C068039302920191049014A00068C9
:100A30000090144B5968144801F00C02042A11D09C
:100A4000082A0FD101A8C1F38342805C11F4803FD2
:100A50000AD05968C1F340411DF801100A4A5043B9
:100A6000B0FBF1F005B07047084905B04843704746
:100A700002030405060708090A0B0C0D0E0F1010DF
:100A8000010200000010024000127A0000093D003F
:100A90002DE9F84F0446FA4D207810F0010F68D088
:100AA000686800F00C00042808D0686800F00C00AA
:100AB00008280DD1686810F4803F09D0286810F428
:100AC000003F56D06068002853D10120BDE8F88F60
:100AD0006068B0F5803F15D0C8B1B0F5A02F1FD029
:100AE000286820F480302860286820F4802028605E
:100AF000606858B3FFF762FC0646286810F4003FB0
:100B000017D036E0286840F480302860F0E7286885
:100B100020F480302860286820F480202860E7E7EF
:100B2000286840F480202860286840F480302860DD
:100B3000DEE7FFF743FC801B642802D90320BDE8F1
:100B4000F88F286810F4003FF3D012E0FFF736FC6E
:100B50000646286810F4003F0BD0FFF72FFC801BDF
:100B6000642802D90320BDE8F88F286810F4003FFC
:100B7000F3D12078C34F10F0020F4FF0010B4FF06C
:100B8000000854D0686810F00C0F14D0686800F0AA
:100B90000C00082803D1686810F4803F0BD020694E
:100BA00078B3C7F800B0FFF709FC0646286810F0D4
:100BB000020F12D01DE0286810F0020F05D0206946
:100BC000012802D00120BDE8F88F2868616920F073
:100BD000F80040EAC100286029E0FFF7EFFB801B26
:100BE000022802D90320BDE8F88F286810F0020F10
:100BF000F3D02868616920F0F80040EAC10028605D
:100C000015E0FFE7C7F80080FFF7D8FB0646286825
:100C100010F0020F0BD0FFF7D1FB801B022802D986
:100C20000320BDE8F88F286810F0020FF3D1207878
:100C300010F0080F30D09448A169C1B1C0F800B0DD
:100C4000FFF7BCFB0646686A10F0020F0BD1FFF7F6
:100C5000B5FB801B022802D90320BDE8F88F686A23
:100C600010F0020FF3D0012000F068FF14E0C0F88C
:100C70000080FFF7A3FB0646686A10F0020F0BD056
:100C8000FFF79CFB801B022802D90320BDE8F88FE8
:100C9000686A10F0020FF3D1207810F0040F6FD0C3
:100CA0000026E86910F0805F08D1E86940F08050C4
:100CB000E861E86900F0805000900126DFF8CCA1DF
:100CC000DAF8000010F4807F1BD1DAF8000040F45D
:100CD0008070CAF80000FFF771FB8146DAF8000067
:100CE00010F4807F0DD1FFF769FBA0EB09006428A9
:100CF00002D90320BDE8F88FDAF8000010F4807FF5
:100D0000F1D0E068012816D0D0B1052821D0286A9A
:100D100020F001002862286A20F004002862E068C0
:100D200041F2883A68B3FFF749FB8146286A10F020
:100D3000020F17D03AE0286A40F001002862EEE77F
:100D4000286A20F001002862286A20F00400286246
:100D5000E5E7286A40F004002862286A40F00100B4
:100D60002862DCE7FFF72AFBA0EB0900504502D917
:100D70000320BDE8F88F286A10F0020FF2D015E0CA
:100D80001AE0FFE7FFF71AFB8146286A10F0020F0E
:100D90000CD0FFF713FBA0EB0900504502D903204C
:100DA000BDE8F88F286A10F0020FF2D1012E03D1AE
:100DB000E86920F08050E861E069E8B3696801F013
:100DC0000C01082958D0022810D0C7F86080FFF71E
:100DD000F5FA0446286810F0007F4AD0FFF7EEFAD3
:100DE000001B022841D90320BDE8F88FC7F86080B6
:100DF000FFF7E4FA0646286810F0007F0BD0FFF7F3
:100E0000DDFA801B022802D90320BDE8F88F28688C
:100E100010F0007FF3D1206AB0F5803F05D16868FB
:100E2000A16820F4003008436860616A206A0843C2
:100E3000696821F4741100E01BE008436860C7F89A
:100E400060B0FFF7BBFA0446286810F0007F10D1AD
:100E5000FFF7B4FA001B022802D90320BDE8F88F7F
:100E6000286810F0007FF3D003E0286810F0007FBE
:100E7000B4D10020BDE8F88F0120BDE8F88F000054
:100E800000100240000042428004424200700040D4
:100E900070B50446002C05D00025A56294F85100D9
:100EA00010B104E0012070BD204600F033F80220AC
:100EB00084F851002068016821F040010160A168B8
:100EC000606822690843E168114308436169084387
:100ED000218B01F400710843E1690843216A08434A
:100EE000A16A084321680860A069042101EA104052
:100EF000616A0843216848602168E06A08612068E7
:100F0000C16921F40061C1616565012084F8510067
:100F1000002070BD30B585B0002400940194029487
:100F2000039400681449884223D11448816941F42C
:100F300080518161816901F480510491816941F09E
:100F40000401816180690E4D00F004000490A0202E
:100F50000090022001900320039069462846FFF785
:100F600027F94020CDE90004694628460294FFF79E
:100F70001FF905B030BD00000030014000100240F4
:100F8000000801402DE9F84F0446DDF828800D46A1
:100F900016469B4601274FF0000994F8500001289F
:100FA0000ED0012084F85000FFF708FA824694F82A
:100FB0005100616801280ED0B1F5827F07D102E0AF
:100FC0000220BDE8F88FA16809B9042803D04FF0CA
:100FD000020900F0C3B845B13EB1BBF1000F04D027
:100FE00094F85100012803D005E04FF00109B5E065
:100FF000052084F8510000206065A663A4F83EB087
:10100000A4F83CB02563A4F836B0A4F834B020644A
:1010100060642068016811F0400F03D1016841F05D
:1010200040010160E068B0F5006F05D06068C8B3AA
:10103000E08E01283ED06EE0606810B1E08E01289D
:1010400031D121682888C860AD1CE08E401EE08642
:1010500029E06FB1E08E58B12068816811F0020F6D
:1010600006D02988C160AD1CE08E401EE0860027B6
:10107000E08F58B12068816811F0010F06D0C06878
:101080003080B61CE08F401EE0870127B8F1FF3F9B
:1010900009D0FFF793F9A0EB0A00404503D34FF0C6
:1010A00003095BE006E0E08E0028D2D1E08F002843
:1010B000CFD136E02168287808736D1CE08E401E81
:1010C000E08628E06FB1E08E58B12068816811F0A9
:1010D000020F06D015F8011B0173E08E401EE0865A
:1010E0000027E08F58B12068816811F0010F06D009
:1010F000C06806F8010BE08F401EE0870127B8F1B9
:10110000FF3F08D0FFF75AF9A0EB0A00404502D391
:101110004FF0030922E0E08E0028D3D1E08F0028B1
:10112000D0D14346012202212046CDF800A000F094
:1011300045FD10B14FF0030910E0524641462046EC
:1011400000F02AFD20B14FF001092020606505E084
:10115000A06818B92068C16880680090012084F8F0
:101160005100002084F850004846BDE8F88F000088
:10117000401EB0F1807F01D3012070474FF0E02185
:101180004861044AF020107000208861072008613F
:101190000020704723ED00E090F83C20012A2FD07A
:1011A000012280F83C20CA680023D1F808C022F44C
:1011B000407242EA0C02D1F804C022F4806242EA92
:1011C0000C02D1F800C022F4006242EA0C02D1F80D
:1011D00010C022F4805242EA0C02D1F814C022F46A
:1011E000005242EA0C02896922F480420A4322F446
:1011F000004211430268516480F83C30002070477F
:101200000220704710B490F83C20012A2AD0012314
:1012100080F83C30022280F83D200268D2F804C0F9
:101220002CF0700CC2F804C00268D2F804C00C683C
:101230004CEA040CC2F804C00268D2F808C02CF0D2
:10124000800CC2F808C00268D2F808C049684CEAAD
:101250000101916080F83D30002180F83C1010BC05
:101260000020704710BC0220704710B50446002CC7
:1012700003D094F83D0010B107E0012010BD00201C
:1012800084F83C00204600F00DF8022084F83D0070
:10129000211D206800F03CFD012084F83D00002065
:1012A00010BD000008B50C4A01680C48914207D1F6
:1012B000816941F400618161806900F4006009E0A6
:1012C000B1F1804F07D1C16941F00101C161C0692D
:1012D00000F00100009008BD002C01400010024009
:1012E00070B5044694F83C00012818D0012584F814
:1012F0003C50022084F83D002068826822F077028A
:1013000022F47F428260086850283AD00EDC202800
:101310005FD006DC002852D0102863D154E00220B0
:1013200070BD30285AD040285CD13EE0602832D0D1
:1013300070280CD0B0F5805F03D0B0F5005F51D1BC
:1013400013E02068816821F0070181604AE0CB68E2
:101350004A688968206800F024FD2068816821F0CF
:10136000770141F0770181603CE0CB684A68896889
:10137000206800F016FD2068816841F4804181609A
:1013800030E0CA684968206800F0E1FD502120681B
:1013900000F012FD26E0CA684968206800F0EAFD06
:1013A0006021206800F008FD1CE0CA6849682068D8
:1013B00000F0CDFD4021206800F0FEFC12E000218D
:1013C000206800F0F9FC0DE01021206800F0F4FC2A
:1013D00008E02021206800F0EFFC03E030212068C5
:1013E00000F0EAFC84F83D50002084F83C0070BD19
:1013F00010B586B000210091019102910391124C29
:101400000368124902221248A34209D18B6943F0B2
:1014100004038B61896901F00401049181150BE0DB
:10142000B3F1804F0ED18B6943F004038B6189695E
:1014300001F0040104910121CDE9001269460392F3
:10144000FEF7B6FE06B010BD002C014000100240B1
:101450000008014070B504460D4694F83C00012890
:101460000DD0012684F83C60022084F83D0042B192
:10147000042A1AD0082A2DD00C2A53D13EE002208B
:1014800070BD2946206800F09FFC2068816941F00A
:10149000080181612068816921F00401816120686F
:1014A00081692A69114381613CE02946206800F086
:1014B000BFFC2068816941F4006181612068816915
:1014C00021F480618161206881692A6941EA0221F1
:1014D000816127E02946206800F0DEFC2068C169B0
:1014E00041F00801C1612068C16921F00401C161B6
:1014F0002068C1692A691143C16113E02946206847
:1015000000F0FEFC2068C16941F40061C1612068FF
:10151000C16921F48061C1612068C1692A6941EA19
:101520000221C16184F83D60002084F83C0070BD58
:1015300010B50446002C03D094F83D0010B107E02C
:10154000012010BD002084F83C00204600F00CF87B
:10155000022084F83D00211D206800F0D9FB012005
:1015600084F83D00002010BD704710B504460122EC
:10157000206800F009FC2068A0F18041B1F59631A7
:1015800003D1416C41F4004141642068016841F09D
:1015900001010160002010BDFEE701684A6912F4F4
:1015A000806F0DD06FF480624A61042101640021D4
:1015B0000163202280F83D2080F83C100120704714
:1015C00000207047F8B504460D4617461E46E06AEF
:1015D000042808D0012806D010F5803F03D0206BE6
:1015E000122806D00AE02068016841F48071016089
:1015F00004E02068016841F4807101603B460022EC
:101600004FF001112046009600F064F808B1032065
:10161000F8BD2069B0F5804F12D005F44070F0217C
:1016200041EAD0102168086133463A461149204604
:1016300000F0AAF858B1206C042806D00320F8BDA9
:10164000216805F0FE00086104E00120F8BD216872
:10165000E8B2086133463A460749204600F094F85C
:1016600030B1206C042801D00320F8BD0120F8BD62
:101670000020F8BD080001000200010070B504461A
:101680000D4616462068406910F0040F20D1204610
:10169000FFF783FF08B1012070BDB5F1FF3F12D005
:1016A00025B1FEF78BFE801BA8420CD9206C40F0C0
:1016B0002000206400202063202184F83D1084F85D
:1016C0003C00032070BD2068406910F0040FDED09C
:1016D000002070BD2DE9F0470446DDF820900D464E
:1016E00017461E46C5F307482068B8F1010F1ED003
:1016F000806925EA00000004000C22D00020B842D6
:101700002FD1B6F1FF3F1ED02EB1FEF757FEA0EB52
:101710000900B04217D900202063202184F83D1031
:1017200084F83E0084F83C000320BDE8F08740695F
:1017300025EA00000004000C01D00020DFE70120B2
:10174000DDE70120DBE7B8F1010F0DD020688069EB
:1017500025EA00000004000C13D04FF0000CBC453B
:10176000CFD00020BDE8F0872068406925EA00005E
:101770000004000C02D04FF0000CF0E74FF0010C19
:10178000EDE74FF0010CEAE72DE9F04704460D467E
:1017900016461F46C5F307482068B8F1010F22D04E
:1017A000806925EA00000004000C3FD04FF00009DA
:1017B0004FF0200A2068406910F4806F1AD020682A
:1017C000016841F40071016021686FF48060486134
:1017D00004202064C4F8309084F83DA084F83C9044
:1017E0000120BDE8F087406925EA00000004000CF4
:1017F0001CD0DBE7B6F1FF3F0ED026B1FEF7DEFDD1
:10180000C01BB04208D9C4F8309084F83DA084F8D9
:101810003C900320BDE8F087B8F1010F09D02068A3
:10182000806925EA00000004000CC3D10020BDE857
:10183000F0872068406925EA00000004000CB9D157
:10184000F4E770B504460D4616462068406910F06E
:10185000800F20D12046FFF7A0FE08B1012070BD07
:10186000B5F1FF3F12D025B1FEF7A8FD801BA842BD
:101870000CD9206C40F0200020640020206320213F
:1018800084F83D1084F83C00032070BD2068406956
:1018900010F0800FDED0002070BD000010B50122D6
:1018A00010211348FEF783FD012211461148FEF76F
:1018B0007EFD00F021F88D212A2000F06FFB3E21F3
:1018C0002B2000F06BFB1E212D2000F067FB002178
:1018D0002C2000F063FB4021152000F05FFB3D2130
:1018E000112000F05BFBBDE81040FEF741BC00009A
:1018F00000080140000C01400F21012000F04EBB08
:101900002DE9F04385B00024284800940194029406
:101910000394816941F020018161816901F0200116
:101920000491816941F004018161816901F0040140
:101930000491816941F0080181618069DFF870805C
:1019400000F008000490002210214046FEF72FFD11
:10195000DFF860904FF47347002239464846FEF79F
:1019600026FD0225CDE90054694640460294FEF763
:101970001FFC10200126CDE9000669464046CDE94E
:101980000245FEF715FC40F603408DE8510069461C
:101990004846FEF70DFCCDE9007669464846CDE99C
:1019A0000245FEF705FC05B0BDE8F08300100240DB
:1019B00000080140000C01400C480B494FF4007234
:1019C00001604FF48271416000218160C16001615A
:1019D000C0E905120822C0E90721416281620A219B
:1019E000C162FFF755BA0000003001407C000020C2
:1019F00010B594B000240E940F9410941194129486
:101A00001C2168461394FEF796FB1C2107A8FEF7DD
:101A100092FB20481E4901604FF4E171C0E90114B6
:101A20004FF47A71C0E9031444618461FFF71DFC2F
:101A30004FF480500E900EA91648FFF751FC154840
:101A4000FFF776FD129412A912481394FFF7DAFB00
:101A50006020CDE9000402940394049405940022CC
:101A600069460C480694FFF7F5FC0794089409941E
:101A70004FF400500A94CDE90B4007A905480D9496
:101A8000FFF78AFB0348FFF7B3FC14B010BD00005A
:101A9000002C0140D400002010B58EB00024079423
:101AA000089409940A940B941C2168460C94FEF740
:101AB00042FB17484FF0804101604FF4E171C0E9EB
:101AC00001144FF47A71C0E903148461FFF7CDFB70
:101AD0004FF48050079007A90D48FFF701FC0C4810
:101AE000FFF726FD0B940BA909480C94FFF78AFB1E
:101AF0006020CDE900040294002269460448049461
:101B0000FFF7A8FC0248FFF773FC0EB010BD000001
:101B100014010020FEE770477047000001B582B055
:101B200064200090012301AA02A90348FFF72AFAC2
:101B30009DF804000EBD00007C00002081B0074924
:101B40004FF4FA520968B1FBF2F14843009000BF2C
:101B50000098411E0091FAD201B070471400002095
:101B600070B50C4D0446002210212846FEF71FFCDC
:101B70007E2000EA440040F08000FFF7CFFF002005
:101B8000FFF7CCFF0446012210212846FEF70FFC88
:101B9000204670BD0008014038B504460B4600924F
:101BA00000228021204600F009F828B1606D40F045
:101BB00020006065032038BD002038BD2DE9F041CC
:101BC0000446069E884617461D462068806838EA07
:101BD000000015D00020B84240D0B5F1FF3F35D00D
:101BE00025B1FEF7EBFB801BA8422FD3206841688C
:101BF00021F0E00141606068B0F5827F02D00DE025
:101C00000120E8E7A068B0F5004F02D0B0F5806F82
:101C100004D12068016821F040010160A06AB0F59C
:101C2000005F0AD1206801684DF6FF721140016023
:101C30002068016841F400510160012084F85100DE
:101C4000002084F850000320BDE8F08120688068FF
:101C500038EA000005D00020B842BED10020BDE81F
:101C6000F0810120F8E7704770B50C460546FFF794
:101C700077FF40EA04012846BDE8704000F08EB9C5
:101C8000FEF736BD10B590B028216846FEF753FA2E
:101C900014210AA8FEF74FFA0220009001200490B8
:101CA00010200024059007946846FEF7F1FE0F20EF
:101CB000CDE90A040C940D9400210AA80E94FEF7B5
:101CC000B7FD10B010BD00000D48016841F00101E2
:101CD000016041680B4A1140416001680A4A1140A5
:101CE0000160016821F480210160416821F4FE0156
:101CF00041604FF41F0181600449C00308607047D0
:101D0000001002400000FFF8FFFFF6FE08ED00E0C3
:101D100030B40268194BDFF868C01A4C984206D0FC
:101D2000B0F1804F03D0604501D0A04203D122F032
:101D300070024D682A43984206D0B0F1804F03D01C
:101D4000604501D0A04205D122F44072D1F80CC008
:101D50004CEA020222F08002D1F814C04CEA0202DE
:101D600002608A68C2620A688262984201D1096987
:101D700001630121416130BC70470000002C01402B
:101D8000000400400008004001238B40D0F820C030
:101D90002CEA03030362036A02FA01F119430162A8
:101DA0007047D0F808C02CF47F4C42EA032211435C
:101DB00041EA0C0181607047826822F07002114391
:101DC00041F007018160704710B4026A22F00102FD
:101DD0000262036A4268D0F818C02CF0700C2CF034
:101DE000030C0C6844EA0C0C23F002038C682343B8
:101DF0000E4CA04206D123F00803CC6844EA03034A
:101E000023F0040309D122F4807222F400724C6999
:101E100044EA02028C6944EA02024260C0F818C037
:101E200049684163036210BC70470000002C014008
:101E300010B4026A22F010020262036A4268D0F80B
:101E400018C02CF4E04C2CF4407C0C684CEA042CB8
:101E500023F020038C6843EA04130E4CA04206D101
:101E600023F08003CC6843EA041323F0400309D134
:101E700022F4806222F400624C6942EA84028C6996
:101E800042EA84024260C0F818C049688163036274
:101E900010BC7047002C014010B4026A22F480721A
:101EA0000262036A4268D0F81CC02CF0700C2CF05F
:101EB000030C0C6844EA0C0C23F400738C6843EAAE
:101EC00004230E4CA04206D123F40063CC6843EAFD
:101ED000042323F4806309D122F4805222F40052B7
:101EE0004C6942EA04128C6942EA04124260C0F86A
:101EF0001CC04968C163036210BC7047002C0140DC
:101F000010B4026A22F480520262036A4268D0F876
:101F10001CC02CF4E04C2CF4407C0C684CEA042CE3
:101F200023F400538C6843EA0433A0F18044B4F5F1
:101F3000963404D122F480424C6942EA8412426011
:101F4000C0F81CC049680164036210BC7047036A92
:101F5000D0F820C02CF0010CC0F820C0D0F818C078
:101F60002CF0F00C4CEA021223F00A0319438261B0
:101F700001627047036A23F010030362D0F818C0AF
:101F8000036A2CF4704C4CEA023223F0A00343EABB
:101F90000111826101627047FEE7000070B50B4DD0
:101FA0000E460446002210212846FEF700FA7E2045
:101FB00000EA4400FFF7B2FD3046FFF7AFFD2846C8
:101FC000BDE8704001221021FEF7F1B90008014080
:101FD00002E008C8121F08C1002AFAD170477047F2
:101FE000002001E001C1121F002AFBD17047000050
:101FF0000020044902460A54401CC0B20528FAD306
:10200000704700000D000020012805D04031C8B203
:1020100040F0800000F030B88031C8B2FAE710B567
:10202000332000F029F8322000F026F83220FEF7A5
:10203000ABF8282000F020F83220FEF7A5F80120A8
:1020400000F01AF83220FEF79FF8062000F014F88E
:102050003220FEF799F80C2000F00EF83220FEF73F
:1020600093F8022000F008F83220FEF78DF8BDE862
:1020700010408020AFF300801CB500F0F00141F06B
:102080000C028DF8042041F0080100018DF80510C4
:1020900040F00C018DF8061040F008008DF80700A4
:1020A00064200090042301AA4E210248FEF736FA6C
:1020B0001CBD0000280000201CB500F0F00141F01C
:1020C0000D028DF8042041F0090100018DF8051082
:1020D00040F00D018DF8061040F009008DF8070062
:1020E00064200090042301AA4E210248FEF716FA4C
:1020F0001CBD00002800002010B5044602E0641C4E
:10210000FFF7DAFF20780028F9D110BDFEF7F8FAC2
:10211000FFF7B8FDFFF7F4FB8F488E4900250160FB
:102120008E49C0E901154FF48041C0E90351456172
:102130008561C5610562FEF747F9FFF73DFCFFF7D2
:1021400057FCFFF7A9FC4FF47A7A5046FEF71CF8CB
:10215000FFF7A4FBFFF763FF7F480021AC30FFF7D8
:1021600004FA7D480021EC30FFF7FFF9DFF8F49125
:102170007B4EA9F105084FF4FA6BA8F1080400BFE3
:1021800000F07EF9A0703178012905D1412806D0F0
:10219000422808D043280AD0207850B145E00120D9
:1021A0002070357044E0022020703570E8E725701B
:1021B000357000210120FFF727FF6BA0FFF79CFF80
:1021C00000F028F907466420FDF7DEFF012F2CD12F
:1021D00000204B464246195C175CB94202D1617837
:1021E000491C6170401CC0B20528F4D3607865704A
:1021F00005284FF000014FF0010005D3FFF704FF61
:10220000FFF7F6FE5CA004E0FFF7FEFEFFF7F0FE2E
:102210005EA0FFF771FF5846FDF7B6FF00210220D0
:10222000FFF7F2FE5EA0FFF767FF207801285CD180
:1022300000210120FFF7E8FE5EA0FFF75DFF00F040
:10224000E9F807466420FDF79FFF012F4DD10020DC
:102250004B464246195C175CB94202D16178491C71
:102260006170401CC0B20528F4D3607805280FD3F4
:102270006570FFF7BDFE00210120FFF7C5FE52A0EB
:10228000FFF73AFF5046FDF77FFF0320207030E054
:10229000FFF7AEFE657000210120FFF7B5FE4EA0EE
:1022A000FFF72AFF00210220FFF7AEFE3CA0FFF758
:1022B00023FF57465046FDF767FF00210220FFF736
:1022C000A3FE37A0FFF718FF00210120FFF79CFEB7
:1022D00046A0FFF711FF3846FDF756FF0021022008
:1022E000FFF792FE2EA0FFF707FF207803287FF468
:1022F0005DAF00210120FFF787FE41A0FFF7FCFE44
:1023000000F088F807466420FDF73EFF012FEED16C
:102310000020494642460B5C1354401CC0B20528BD
:10232000F9D3FFF765FE57465046FDF72DFF002114
:102330000220FFF769FE24A0FFF7DEFE3846FDF716
:1023400023FF00210220FFF75FFE15A0FFF7D4FE58
:10235000257015E70054004028000020A0860100E9
:10236000240000200D000020456E7465722070610D
:102370007373776F72643A004F70656E20646F6F8D
:102380007221202020202020202020004E47207075
:10239000617373776F72643A202020202020000040
:1023A000202020202020202020202020202020202D
:1023B000200000004F6C642070617373776F72644B
:1023C0003A202020200000004F4B212020202020F8
:1023D0002020202020203A004E4720706173737720
:1023E0006F72643A20202020200000004F6C64208F
:1023F00070617373776F72643A2020202020000090
:102400004E65772070617373776F72643A20202075
:102410002020200070B517481749002545710A781B
:102420002E46012A16D10D70A0F10D042146A27886
:102430004968442A10D04254491C6160002102209E
:10244000FFF7E2FD0B48FFF757FE6068052801DB48
:1024500001266560304670BD491E6160455402200A
:10246000FFF7D2FD05A0FFF747FE60680028F1DC0A
:102470006560EFE70D000020240000202000000030
:102480002DE9F05FDFF874934FF4004A66250022CF
:1024900051464C464846FDF78AFF012291032046EB
:1024A000FDF785FF012251032046FDF780FF012241
:1024B00011032046FDF77BFF4FF400612046FDF736
:1024C0006FFFD04C002601270028DFF834832078E6
:1024D0007ED040B1F9024846FDF762FF18B1267080
:1024E00088F8007044254FF480614846FDF758FF96
:1024F000002860786DD048B14FF480614846FDF700
:102500004FFF18B1667088F80070232502214846F5
:10251000FDF746FF0028A0787ED040B10221484652
:10252000FDF73EFF18B1A67088F800703025012134
:102530004846FDF735FF0028E0786ED040B1012114
:102540004846FDF72DFF18B1E67088F800702A257F
:10255000012251464846FDF72AFF00224FF48041F0
:102560004846FDF724FF012251034846FDF71FFFAF
:10257000012211034846FDF71AFF4FF40061484657
:10258000FDF70EFF002820797ED048B14FF400619E
:102590004846FDF705FF18B1267188F800704325FD
:1025A0004FF4806B59464846FDF7FAFE00286079E3
:1025B0006BD040B159464846FDF7F2FE18B166713E
:1025C00088F80070392502214846FDF7E9FE01E050
:1025D000E3E0E5E00028A0797ED040B10221484642
:1025E000FDF7DEFE18B1A67188F8007038250121CC
:1025F0004846FDF7D5FE0028E0796ED040B10121B4
:102600004846FDF7CDFE18B1E67188F80070372511
:102610000122D103484601E0C5E0C7E0FDF7C7FE4F
:10262000012291034846FDF7C2FE00224FF40051FB
:102630004846FDF7BCFE012211034846FDF7B7FEF0
:102640004FF4006A51464846FDF7AAFE0028207A5A
:102650007ED040B151464846FDF7A2FE18B1267221
:1026600088F80070422559464846FDF799FE002833
:10267000607A6ED058B159464846FDF791FE30B1A8
:10268000667288F8007001E093E095E0362502213B
:102690004846FDF785FE0028A07A7CD040B1022193
:1026A0004846FDF77DFE18B1A67288F80070352502
:1026B00001214846FDF774FE0028E07A6CD040B155
:1026C00001214846FDF76CFE18B1E67288F80070EB
:1026D00034250122D10301E071E073E04846FDF7A3
:1026E00066FE012291034846FDF761FE0122510377
:1026F0004846FDF75CFE00224FF480514846FDF746
:1027000056FE51464846FDF74BFE0028207B68D018
:1027100040B151464846FDF743FE18B1267388F88C
:102720000070412559464846FDF73AFE0028607B77
:102730005AD040B159464846FDF732FE18B166738B
:1027400088F80070332502214846FDF729FE01E094
:102750003BE03DE00028A07B49D040B10221484643
:10276000FDF71EFE18B1A67388F80070322501210E
:102770004846FDF715FE0028E07B3BD040B1012123
:102780004846FDF70DFE18B1E67388F80070312554
:102790002846BDE8F09F1EE020E0401C2070A2E625
:1027A000401C6070B2E6401CA070C0E6401CE070A7
:1027B000CEE6401C2071F3E6401C607103E7401C2C
:1027C000A07114E7401CE07122E7401C20724AE728
:1027D000401C60725BE7401CA07269E7401CE0721D
:1027E00077E7401C20739DE7401C6073ABE7401CFB
:1027F000A073BCE7401CE073CAE70000000C014076
:10280000240000205401002000000000000000000F
:102810000102030406070809000000000102030486
:10282000402800080000002028000000D01F0008F9
:10283000682800082800002040050000E01F00086C
:102840000000000000000000313233343500000089
:102850000000000000A24A04010000001000000077
:08286000000000000000000070
:04000005080000ED02
:00000001FF
